:100000000C9464000C948C000C948C000C948C0068
:100010000C948C000C948C000C948C000C94960125
:100020000C948C000C948C000C948C000C948C0020
:100030000C948C000C948C000C948C000C948C0010
:100040000C94C30B0C948C000C9480090C94B20992
:100050000C948C000C948C000C948C000C948C00F0
:100060000C948C000C948C0000000008000201002D
:100070000003040700000000000000000102040863
:100080001020408001020408102001020408102002
:10009000040404040404040402020202020203032E
:1000A00003030303000000002300260029000000D2
:1000B0000000250028002B0000000000240027007D
:1000C0002A002401E209300111241FBECFEFD8E03D
:1000D000DEBFCDBF11E0A0E0B1E0E0E0F5E202C09C
:1000E00005900D92A634B107D9F722E0A6E4B1E05D
:1000F00001C01D92A33DB207E1F710E0C6ECD0E0CD
:1001000004C02297FE010E94E20FC23CD107C9F74A
:100110000E94B40B0C9473120C94000026E040E88B
:1001200055E260E070E089E292E00E941E0961E021
:1001300082E00E94BC0C61E083E00E94BC0C61E0A4
:1001400084E00E94BC0C61E08BE00E94BC0C8AE55C
:1001500091E00C947F0166E471E00E94A00B88237B
:1001600011F060E001C061E08BE00C94F50CEF92BF
:10017000FF920F931F93CF93DF93CDB7DEB72C97EA
:100180000FB6F894DEBF0FBECDBF6CE471E08AE518
:1001900091E00E94D007892B59F140915001509174
:1001A0005101609152017091530122E0CE010796F6
:1001B0000E94430BBE01695F7F4F89E292E00E947B
:1001C000750ABE01695F7F4FCE0101960E94220B26
:1001D000CE0101960E94AB00CE0101960E94870AD3
:1001E0008AE591E00E943502CE0107960E94870AB7
:1001F00006E011E0780161E0F80180810E94F50CD1
:1002000062E370E080E090E00E94300C0E5F1F4FD0
:1002100060E0F70180810E94F50C62E370E080E00D
:1002200090E00E94300CF1E00C301F0719F72C967B
:100230000FB6F894DEBF0FBECDBFDF91CF911F91F7
:100240000F91FF90EF9008956AE070E08AE591E0E9
:100250000E947A016CE071E086E491E00C94F50A6A
:1002600086E491E00C94870ACF92DF92EF92FF929E
:10027000CF93DF93EC01882777FD8095982F0E941C
:10028000590E6B017C0120E030E040E45FE30E9406
:10029000090F20E030E048E452E40E94BE0D0E94C5
:1002A000260EC617D707ECF020E030E040EA5FE307
:1002B000C701B6010E94090F20E030E048E452E493
:1002C0000E94BE0D20E030E040E85FE30E94560D42
:1002D0000E94260E21E06C177D070CF420E0822F8F
:1002E00001C080E090E0DF91CF91FF90EF90DF9030
:1002F000CF90089560935B0110925D010895F8948A
:1003000082E08093B0008093B10094E69093B300B4
:100310001092B20080937000789480935C011092E8
:10032000280280915B0160E00C94BC0C1F920F923C
:100330000FB60F9211242F933F934F935F936F93B8
:100340007F938F939F93AF93BF93EF93FF9380918E
:100350005B010E942B0D20915E0130915F012F5FA8
:100360003F4F30935F0120935E01909128029436B5
:1003700018F095E090935C0190915C019330B9F096
:1003800018F4923039F057C0943059F1953009F48F
:100390004CC051C081114FC020915E0130915F016E
:1003A0002436310508F443C0109228021CC0813065
:1003B00009F041C0E091280291E09E0F909328023D
:1003C000F0E020915E0130915F01EE0FFF1FE55AD2
:1003D000FE4F3683258310925F0110925E0194E0F8
:1003E00021C0811117C0E091280291E09E0F9093E7
:1003F0002802F0E020915E0130915F01EE0FFF1FB7
:10040000E55AFE4F3683258310925F0110925E01FC
:1004100093E008C020915E0130915F0125363105DF
:1004200050F095E090935C0106C0811104C01092D9
:100430005F0110925E0190915D01992329F0811175
:1004400002C02D9A01C02D98FF91EF91BF91AF91FD
:100450009F918F917F916F915F914F913F912F91DC
:100460000F900FBE0F901F90189582E080935C0153
:10047000109228020895CF93DF93FB01C285D385A4
:100480008A819B81885891098D35910500F580916D
:100490002802843029F48C819D8180974797D8F079
:1004A00080912802843498F08C819D818254910936
:1004B0008E9768F4269623E030E080E090E0DC013F
:1004C000488159814950510949305105D8F060E0BF
:1004D00070E0CB013AC08E819F810997099700F7A0
:1004E000118610868FEF9FEFDC0184839583A683AE
:1004F000B78381E090E09183808361E070E080E0E9
:1005000090E023C04A815B81465151094131510538
:1005100080F4880F991FAA1FBB1F81602E5F3F4F79
:1005200024962334310561F620E230E031872087BC
:10053000DCCF4A815B81465051094730510538F67E
:10054000880F991FAA1FBB1FE9CFDF91CF91089594
:100550000F931F93CF93DF93FB01809128028A3181
:1005600008F44DC0C285D38588819981843F91402C
:1005700060F4118610868FEF9FEFDC0184839583F2
:10058000A683B78389E090E033C08A819B818597F9
:100590004B97A8F58E010A5F1F4F22E030E080E004
:1005A00090E0DC014091280250E0B9016F5F7F4F7D
:1005B000641775075CF4A80142505109EA014881AB
:1005C00059814750510947305105E8F02150310910
:1005D00035952795318720872C3031051CF41186FD
:1005E00010860DC084839583A683B78382E090E054
:1005F0009183808361E070E080E090E023C060E060
:1006000070E0CB011FC0E801488159814351510975
:100610004F30510550F4880F991FAA1FBB1F8160EE
:100620002E5F3F4F0C5F1F4FBDCFE80148815981BE
:100630004A5051094930510510F7880F991FAA1FD8
:10064000BB1FEECFDF91CF911F910F9108950F93B4
:100650001F93CF93DF93FB01809128028A3108F426
:1006600051C0C285D385888199818032934030F40E
:10067000118610868FEF9FEFDC0107C08A819B8176
:10068000C697869708F442C03DC084839583A683AD
:10069000B78389E090E09183808361E070E080E03F
:1006A00090E04FC0E80148815981455251094B31D2
:1006B0005105D0F5880F991FAA1FBB1F81602E5FBF
:1006C0003F4F0C5F1F4F4091280250E0B9016F5F10
:1006D0007F4F641775075CF4A80142505109EA0185
:1006E000488159814C5051094B305105D8F2215065
:1006F000310935952795318720872C3031052CF627
:100700001186108660E070E0CB011BC08C819D815A
:10071000C6978697B8F78E01085F1F4F23E030E039
:1007200080E090E0DC01CFCFE801488159814C5056
:1007300051094A30510530F7880F991FAA1FBB1F76
:10074000BECFDF91CF911F910F910895EF92FF924D
:100750000F931F93CF93DF93FB0180912802823286
:1007600008F44DC0C285D3858A819B81069707977F
:1007700008F045C07E0186E0E80EF11C22E030E082
:1007800080E090E0DC01B9016F5F7F4F409128026B
:1007900050E064177507D4F4E701229708811981A6
:1007A0000E5111090731110570F5880F991FAA1F05
:1007B000BB1F8160E70148815981D4E0ED0EF11C37
:1007C000435051094530510550F19B0121503109E9
:1007D0003595279531872087203131051CF4118606
:1007E00010860DC084839583A683B7838AE090E04A
:1007F0009183808361E070E080E090E013C060E06E
:1008000070E0CB010FC0488159814C5051094B30E9
:100810005105A8F7880F991FAA1FBB1FCBCF2E5FCA
:100820003F4FB1CFDF91CF911F910F91FF90EF908C
:1008300008958F929F92AF92BF92CF92DF92EF92E4
:10084000FF920F931F93CF93DF937A016901DA012F
:10085000CD91DC91FB0184859585C817D9070CF0F3
:100860004AC0CE01880F991F0284F385E02DE80F5E
:10087000F91FA080B180C170DD27F1E0CF2720975C
:1008800019F484E690E002C08CE99FEF4801880EDD
:10089000991EB401C5010E943401892B99F4800E80
:1008A000911EB401C5010E943401892B71F4B40179
:1008B000600F711FC5010E943401892BF9F023E0FC
:1008C00030E005C021E030E002C022E030E0D60197
:1008D0008D919C91119701968217930744F0F60130
:1008E00011821082D7018D919C91119701968D9361
:1008F0009C93CE0105C081E090E002C08FEF9FEF96
:10090000DF91CF911F910F91FF90EF90DF90CF90EB
:10091000BF90AF909F908F9008954F925F926F928B
:100920007F928F929F92AF92BF92CF92DF92EF927F
:10093000FF920F931F93CF93DF9300D000D0CDB7DA
:10094000DEB76C017B01809128028D3020F460E0DD
:1009500070E0CB017AC081E090E09C838B831A82A7
:10096000198209E713E09E012F5F3F4FAE014D5FF3
:100970005F4FC6010E941904892B49F79E012F5F22
:100980003F4FAE014D5F5F4FB701C6010E94190492
:100990000197E9F69E012F5F3F4FAE014D5F5F4F1C
:1009A000B701C6010E941904892B89F6A12CB12C2C
:1009B000412C512C32018091280290E02B813C8106
:1009C000281739079CF509E713E09E012F5F3F4F79
:1009D000AE014D5F5F4FB701C6010E9419044C0183
:1009E0009E012F5F3F4FAE014D5F5F4FB701C601C4
:1009F0000E94190421E08216910451F4892B09F018
:100A0000A6CF440C551C661C771C689440F80AC09D
:100A1000892809F09CCF019709F099CF440C551C07
:100A2000661C771C8FEFA81AB80AC5CFF701B186EC
:100A3000A086448255826682778283E090E091832B
:100A4000808361E070E080E090E00F900F900F9065
:100A50000F90DF91CF911F910F91FF90EF90DF905A
:100A6000CF90BF90AF909F908F907F906F905F904E
:100A70004F9008952F923F924F925F926F927F9284
:100A80008F929F92AF92BF92CF92DF92EF92FF929E
:100A90000F931F93CF93DF9300D000D0CDB7DEB775
:100AA0006C017B01DB011C968D919C911D971816A2
:100AB000190624F060E070E0CB01B4C081E090E062
:100AC0009C838B83DB011A96ED91FC911B978281AD
:100AD000938189974E9770F782E090E09C838B8397
:100AE000848195810B970A9728F783E090E09C8397
:100AF0008B831A8219820CEB11E09E012F5F3F4F0E
:100B0000AE014D5F5F4FC6010E941904892B91F61B
:100B10000CEB11E09E012F5F3F4FAE014D5F5F4F29
:100B2000B701C6010E941904019721F6A12CB12C2E
:100B3000212C312C21012B813C81F7018485958565
:100B4000281739070CF060C00CEB11E09E012F5FF5
:100B50003F4FAE014D5F5F4FB701C6010E941904C0
:100B60003C01B3E0AB16B10491F00CEB11E09E0137
:100B70002F5F3F4FAE014D5F5F4FB701C6010E942F
:100B800019044C01E3E0AE16B10409F510C00CEBFA
:100B900011E09E012F5F3F4FAE014D5F5F4FB701E8
:100BA000C6010E94190468167906F9F283CF0CEB8E
:100BB00011E09E012F5F3F4FAE014D5F5F4FB701C8
:100BC000C6010E9419048816990609F073CF6114B2
:100BD000710459F48A94892809F06CCF220C331CD3
:100BE000441C551C689420F80BC06A94672809F0CF
:100BF00061CF892809F05ECF220C331C441C551CA0
:100C0000AFEFAA1ABA0A97CFB186A086248235829E
:100C10004682578284E090E09183808361E070E0B7
:100C200080E090E00F900F900F900F90DF91CF91A8
:100C30001F910F91FF90EF90DF90CF90BF90AF90FA
:100C40009F908F907F906F905F904F903F902F90EC
:100C500008950F931F93CF93DF93FB01A285B38574
:100C600012968D919C911397C6978697D0F41496FF
:100C70008D919C9115974B97459798F41696C3E0E4
:100C8000D0E020E030E040E050E060E070E080E064
:100C900090E00D911C911197095011090830110530
:100CA00020F060E070E0CB0135C012960D911C91F0
:100CB0001397015111090D301105F8F401E00E945C
:100CC000A90F216022961496C336D10511F724830B
:100CD00035834683578300E20E94C40F2283338307
:100CE00087E090E09183808380E390E09187808724
:100CF00061E070E080E090E00DC012960D911C91D3
:100D00001397045011090530110558F601E00E94AF
:100D1000A90FD8CFDF91CF911F910F9108950F9315
:100D20001F93CF93DF93FB018091280202851385E7
:100D30008232A9F4D80112968D919C9113970A974B
:100D4000099768F480912802D801A80FB11DA80F57
:100D5000B11D12978D919C910A97099770F0D80157
:100D600012968D919C91139789579109833591051E
:100D700050F060E070E0CB015EC0118610868FEF0E
:100D80009FEFDC014CC080912802813290F3E80192
:100D90008C819D81CA97899760F798012A5F3F4FA0
:100DA00043E050E080E090E0DC01E9016881798176
:100DB0006A50710969307105E0F6E9016A817B8149
:100DC0006651710961317105E0F4880F991FAA1FFE
:100DD000BB1F81604E5F5F4F2C5F3F4F4332510519
:100DE00021F7E801CA5BDF4F288139812A50310998
:100DF0002930310508F0BDCF20E130E03187208770
:100E00000EC0E9016A817B81665071096730710506
:100E100008F0AFCF880F991FAA1FBB1FDBCF8483B9
:100E20009583A683B78388E090E09183808361E017
:100E300070E080E090E0DF91CF911F910F910895D5
:100E40008F929F92AF92BF92CF92DF92EF92FF92DA
:100E50007B01BA0180E090E00E94570E4B015C01DB
:100E6000B70180E090E00E94570E6B017C012DECF1
:100E70003CEC4CE45FE30E94090F9B01AC01C5010F
:100E8000B4010E94BA0D87FD17C02DEC3CEC4CE478
:100E90005FE3C501B4010E94090F9B01AC01C701CA
:100EA000B6010E94BA0D992787FD90958827990F62
:100EB000881F9927019602C080E090E0FF90EF9094
:100EC000DF90CF90BF90AF909F908F9008958F92BA
:100ED0009F92AF92BF92CF92DF92EF92FF920F93C9
:100EE0001F93CF93DF936C01EB01EC84FD8486E0CC
:100EF000E816F1040CF444C0EE0CFF1C06E010E010
:100F000045EC842E4DE9942E4CE1A42E41E8B42EFC
:100F10008A859B85FC01E00FF11F40815181F8011A
:100F20003497E80FF91F60817181C6010E94200784
:100F3000FC01A501940163E971E080E091E00E9469
:100F40006C0F4F01AA2497FCA094BA2C86269726F2
:100F5000A826B9260E5F1F4F0E151F05C9F68C82F5
:100F60009D82AE82BF8280E290E0998788878FEF72
:100F70009FEF9983888361E070E080E090E003C098
:100F800060E070E0CB01DF91CF911F910F91FF9056
:100F9000EF90DF90CF90BF90AF909F908F9008958B
:100FA0000F931F93CF93DF938C01EB0180E691E0C9
:100FB0009B878A878091280290E09D878C8780910B
:100FC0005C01853009F050C0C8010E943B02672BCC
:100FD000682B692B19F081E090E048C0BE01C80180
:100FE0000E94A802672B682B692BA9F7BE01C801D4
:100FF0000E942703672B682B692B69F7BE01C80184
:101000000E94A603672B682B692B29F7BE01C80134
:101010000E948D04672B682B692BE9F6BE01C8017D
:101020000E943A05672B682B692BA9F6BE01C801FF
:101030000E942906672B682B692B69F6BE01C8013F
:101040000E948F06672B682B692B29F6BE01C80109
:101050000E946707672B682B692B09F0BCCF82E0E1
:1010600080935C011092280280E090E0DF91CF91A4
:101070001F910F910895FC01818D228D90E0805C7D
:101080009F4F821B91098F7399270895FC01918DC1
:10109000828D981731F0828DE80FF11D858D90E0DB
:1010A00008958FEF9FEF0895FC01918D828D981721
:1010B00061F0828DDF01A80FB11D5D968C91928D3C
:1010C0009F5F9F73928F90E008958FEF9FEF089539
:1010D00088ED99E0892B49F080E090E0892B29F098
:1010E0000E94D80981110C9400000895FC01848DA0
:1010F000DF01A80FB11DA35ABF4F2C91848D90E042
:1011000001968F739927848FA689B7892C93A0891C
:10111000B1898C9180648C93938D848D981306C0D3
:101120000288F389E02D80818F7D80830895CF939D
:10113000DF93EC01888D8823C9F0EA89FB898081DF
:1011400085FD05C0A889B9898C9186FD0FC00FB6B1
:1011500007FCF5CF808185FFF2CFA889B9898C91F2
:1011600085FFEDCFCE010E947608E7CFDF91CF91CA
:101170000895CF92DF92FF920F931F93CF93DF9347
:101180001F92CDB7DEB76C0181E0D60158968C93E3
:1011900058975B969C915B975C968C915C979813A3
:1011A00007C05096ED91FC915197808185FD2EC02E
:1011B000F601038D10E00F5F1F4F0F731127F02E04
:1011C000F601848DF81211C00FB607FCF9CFD601D5
:1011D0005096ED91FC915197808185FFF1CFC6012A
:1011E00069830E9476086981EBCF838DE80FF11D3A
:1011F000E35AFF4F6083D6015B960C935B97529640
:10120000ED91FC915397808180620CC0D601569677
:10121000ED91FC91579760835096ED91FC91519719
:1012200080818064808381E090E00F90DF91CF9196
:101230001F910F91FF90DF90CF900895BF92CF92B2
:10124000DF92EF92FF92CF93DF93EC016A017B0173
:10125000B22EE889F98982E08083411581EE580732
:1012600061057105A1F060E079E08DE390E0A701F0
:1012700096010E947C0F2150310941095109569570
:10128000479537952795211580E1380798F0E8892B
:10129000F989108260E874E88EE190E0A701960178
:1012A0000E947C0F215031094109510956954795FB
:1012B00037952795EC85FD853083EE85FF85208366
:1012C000188EEC89FD89B082EA89FB898081806172
:1012D0008083EA89FB89808188608083EA89FB8931
:1012E000808180688083EA89FB8980818F7D80830B
:1012F000DF91CF91FF90EF90DF90CF90BF90089556
:101300001F920F920FB60F9211242F938F939F93DA
:10131000EF93FF93E0913902F0913A028081E091DE
:101320003F02F091400282FD12C090818091420202
:101330008F5F8F7320914302821751F0E091420238
:10134000F0E0E75DFD4F958F8093420201C0808100
:10135000FF91EF919F918F912F910F900FBE0F9062
:101360001F9018951F920F920FB60F9211242F9372
:101370003F934F935F936F937F938F939F93AF931D
:10138000BF93EF93FF9389E292E00E947608FF916A
:10139000EF91BF91AF919F918F917F916F915F91ED
:1013A0004F913F912F910F900FBE0F901F90189566
:1013B00089E292E00E943B0821E0892B09F420E0B9
:1013C000822F089510922C0210922B0288EE93E047
:1013D000A0E0B0E080932D0290932E02A0932F0204
:1013E000B093300289E291E090932A02809329021F
:1013F00085EC90E0909336028093350284EC90E087
:10140000909338028093370280EC90E090933A02F8
:101410008093390281EC90E090933C0280933B02F0
:1014200082EC90E090933E0280933D0286EC90E047
:101430009093400280933F02109242021092430226
:1014400010924402109245020895CF92DF92EF92DB
:10145000FF920F931F93CF93DF936C017A01EB01FF
:10146000E60EF71E00E010E0CE15DF0561F0699191
:10147000D601ED91FC910190F081E02DC601099516
:10148000080F191FF1CFC801DF91CF911F910F9164
:10149000FF90EF90DF90CF9008956115710581F076
:1014A000DB010D900020E9F7AD0141505109461BC9
:1014B000570BDC01ED91FC910280F381E02D099442
:1014C00080E090E00895DC01ED91FC91DB01149641
:1014D0004D915C9115976D917C910280F381E02D87
:1014E000099465E371E00C944D0A0F931F93CF9319
:1014F000DF93EC010E94630A8C01CE010E94710A05
:10150000800F911FDF91CF911F910F910895FC01E2
:10151000808191810C948D10CF93DF93EC018881B1
:101520009981009711F00E948D10198218821D82F6
:101530001C821B821A82DF91CF9108950F931F9313
:10154000CF93DF93EC018B016F5F7F4F888199818F
:101550000E941C11009731F0998388831B830A83B2
:1015600081E001C080E0DF91CF911F910F9108953C
:10157000CF93DF93EC0188819981892B29F08A81AF
:101580009B818617970760F4CE010E949E0A8823EC
:1015900041F08C819D81892B19F4E881F9811082B9
:1015A00081E0DF91CF910895EF92FF920F931F9307
:1015B000CF93DF93EC017B018A01BA010E94B80A44
:1015C000811104C0CE010E948C0A07C01D830C83C8
:1015D000B701888199810E94F811CE01DF91CF91E6
:1015E0001F910F91FF90EF900895FC0111821082DE
:1015F00013821282158214826115710559F0FB0164
:1016000001900020E9F7AF0141505109461B570BEB
:101610000C94D40A0895CF93DF93EC01FB01861755
:10162000970761F0608171816115710529F044812E
:1016300055810E94D40A02C00E948C0ACE01DF911B
:10164000CF910895FC0111821082138212821582BB
:1016500014820C940B0BCF93DF93EC016115710591
:1016600061F0FB0101900020E9F7AF014150510901
:10167000461B570B0E94D40A02C00E948C0ACE015E
:10168000DF91CF9108950F931F93CF93DF93CDB741
:10169000DEB7A1970FB6F894DEBF0FBECDBF8C01A9
:1016A000CB01BA01F80111821082138212821582D5
:1016B000148230E0AE014F5F5F4F0E94FF11BE0108
:1016C0006F5F7F4FC8010E942B0BA1960FB6F89455
:1016D000DEBF0FBECDBFDF91CF911F910F91089557
:1016E000CF93DF93DC01ED91FC91EB01A881B981EF
:1016F000309711F01097C9F4109759F0EB012C8135
:101700003D81232B31F08C9190E091958195910949
:1017100014C0309781F0DC0114968D919C9115973F
:10172000892B49F0808190E008C0BD01CF01DF9195
:10173000CF910C94EF1180E090E0DF91CF9108956C
:10174000FC0144815581FB012481358142175307F7
:1017500041F40E94700B21E0892B09F020E0822FD8
:10176000089580E0089508950E94580C0E94B30BDC
:101770000E948E00C8E6D8E00E94B7002097E1F3EF
:101780000E946808F9CF1F920F920FB60F92112492
:101790002F933F938F939F93AF93BF938091C702F3
:1017A0009091C802A091C902B091CA023091C602BC
:1017B00023E0230F2D3720F40196A11DB11D05C094
:1017C00026E8230F0296A11DB11D2093C602809327
:1017D000C7029093C802A093C902B093CA02809135
:1017E000CB029091CC02A091CD02B091CE02019695
:1017F000A11DB11D8093CB029093CC02A093CD028A
:10180000B093CE02BF91AF919F918F913F912F9155
:101810000F900FBE0F901F9018953FB7F8948091CE
:10182000CB029091CC02A091CD02B091CE0226B510
:10183000A89B05C02F3F19F00196A11DB11D3FBF08
:101840006627782F892F9A2F620F711D811D911D98
:1018500042E0660F771F881F991F4A95D1F70895B8
:10186000CF92DF92EF92FF92CF93DF936B017C01D7
:101870000E940D0CEB01C114D104E104F10489F0C4
:101880000E94540D0E940D0C6C1B7D0B683E734032
:1018900090F381E0C81AD108E108F108C851DC4F83
:1018A000EACFDF91CF91FF90EF90DF90CF90089536
:1018B000789484B5826084BD84B5816084BD85B52B
:1018C000826085BD85B5816085BDEEE6F0E08081F2
:1018D00081608083E1E8F0E0108280818260808313
:1018E000808181608083E0E8F0E080818160808396
:1018F000E1EBF0E0808184608083E0EBF0E08081C8
:1019000081608083EAE7F0E0808184608083808169
:101910008260808380818160808380818068808311
:101920001092C1000895833081F028F4813099F03D
:101930008230A1F008958730A9F08830B9F0843062
:10194000D1F4809180008F7D03C0809180008F77DB
:1019500080938000089584B58F7702C084B58F7D11
:1019600084BD08958091B0008F7703C08091B0004E
:101970008F7D8093B0000895CF93DF9390E0FC01BA
:10198000E458FF4F2491FC01E057FF4F84918823D6
:1019900049F190E0880F991FFC01E854FF4FA59191
:1019A000B49182559F4FFC01C591D4919FB76111AD
:1019B00008C0F8948C91209582238C93888182238F
:1019C0000AC0623051F4F8948C91322F3095832301
:1019D0008C938881822B888304C0F8948C91822B0D
:1019E0008C939FBFDF91CF9108950F931F93CF9357
:1019F000DF931F92CDB7DEB7282F30E0F901E85909
:101A0000FF4F8491F901E458FF4F1491F901E05719
:101A1000FF4F04910023C9F0882321F069830E94BD
:101A2000930C6981E02FF0E0EE0FFF1FE255FF4FAE
:101A3000A591B4919FB7F8948C91611103C0109552
:101A4000812301C0812B8C939FBF0F90DF91CF9199
:101A50001F910F910895CF93DF93282F30E0F90164
:101A6000E859FF4F8491F901E458FF4FD491F901EF
:101A7000E057FF4FC491CC2391F081110E94930C49
:101A8000EC2FF0E0EE0FFF1FEC55FF4FA591B49146
:101A90002C912D2381E090E021F480E002C080E0D1
:101AA00090E0DF91CF91089508955058BB27AA2761
:101AB0000ED075C166D130F06BD120F031F49F3F6C
:101AC00011F41EF45BC10EF4E095E7FB51C1E92F60
:101AD00077D180F3BA17620773078407950718F068
:101AE00071F49EF58FC10EF4E0950B2EBA2FA02D48
:101AF0000B01B90190010C01CA01A0011124FF27BB
:101B0000591B99F0593F50F4503E68F11A16F040B5
:101B1000A22F232F342F4427585FF3CF46953795B4
:101B20002795A795F0405395C9F77EF41F16BA0B79
:101B3000620B730B840BBAF09150A1F0FF0FBB1F27
:101B4000661F771F881FC2F70EC0BA0F621F731F70
:101B5000841F48F4879577956795B795F7959E3FCD
:101B600008F0B3CF9395880F08F09927EE0F97955B
:101B700087950895D9D008F481E008950CD00FC15D
:101B800007D140F0FED030F021F45F3F19F0F0C0F3
:101B9000511139C1F3C014D198F39923C9F35523D6
:101BA000B1F3951B550BBB27AA2762177307840750
:101BB00038F09F5F5F4F220F331F441FAA1FA9F306
:101BC00033D00E2E3AF0E0E830D091505040E695F8
:101BD000001CCAF729D0FE2F27D0660F771F881F59
:101BE000BB1F261737074807AB07B0E809F0BB0B48
:101BF000802DBF01FF2793585F4F2AF09E3F51056C
:101C000068F0B6C000C15F3FECF3983EDCF3869508
:101C100077956795B795F7959F5FC9F7880F911DE1
:101C20009695879597F90895E1E0660F771F881FCD
:101C3000BB1F621773078407BA0720F0621B730B80
:101C4000840BBA0BEE1F88F7E095089504D06894D2
:101C5000B111D9C00895BCD088F09F5790F0B92F2A
:101C60009927B751A0F0D1F0660F771F881F991FF1
:101C70001AF0BA95C9F712C0B13081F0C3D0B1E003
:101C80000895C0C0672F782F8827B85F39F0B93F13
:101C9000CCF3869577956795B395D9F73EF49095F3
:101CA0008095709561957F4F8F4F9F4F0895E89471
:101CB00009C097FB3EF490958095709561957F4F94
:101CC0008F4F9F4F9923A9F0F92F96E9BB27939542
:101CD000F695879577956795B795F111F8CFFAF452
:101CE000BB0F11F460FF1BC06F5F7F4F8F4F9F4F83
:101CF00016C0882311F096E911C0772321F09EE8E1
:101D0000872F762F05C0662371F096E8862F70E046
:101D100060E02AF09A95660F771F881FDAF7880F20
:101D20009695879597F90895990F0008550FAA0B76
:101D3000E0E8FEEF16161706E807F907C0F01216DE
:101D40001306E407F50798F0621B730B840B950BE1
:101D500039F40A2661F0232B242B252B21F4089536
:101D60000A2609F4A140A6958FEF811D811D0895D3
:101D700097F99F6780E870E060E008959FEF80EC3E
:101D8000089500240A9416161706180609060895E1
:101D900000240A9412161306140605060895092E47
:101DA0000394000C11F4882352F0BB0F40F4BF2BB6
:101DB00011F460FF04C06F5F7F4F8F4F9F4F0895F6
:101DC00057FD9058440F551F59F05F3F71F04795EC
:101DD000880F97FB991F61F09F3F79F087950895D1
:101DE000121613061406551FF2CF4695F1DF08C0F0
:101DF000161617061806991FF1CF8695710561050D
:101E000008940895E894BB2766277727CB0197F9B4
:101E100008950BD0C4CFB5DF28F0BADF18F09523B2
:101E200009F0A6CFABCF1124EECFCADFA0F3959F68
:101E3000D1F3950F50E0551F629FF001729FBB27B1
:101E4000F00DB11D639FAA27F00DB11DAA1F649F5D
:101E50006627B00DA11D661F829F2227B00DA11D10
:101E6000621F739FB00DA11D621F839FA00D611D96
:101E7000221F749F3327A00D611D231F849F600DB7
:101E8000211D822F762F6A2F11249F5750408AF0F0
:101E9000E1F088234AF0EE0FFF1FBB1F661F771F7C
:101EA000881F91505040A9F79E3F510570F060CFB8
:101EB000AACF5F3FECF3983EDCF386957795679564
:101EC000B795F795E7959F5FC1F7FE2B880F911D9A
:101ED0009695879597F90895DB018F939F930E94BC
:101EE0009E0FBF91AF91A29F800D911DA39F900D5A
:101EF000B29F900D11240895A1E21A2EAA1BBB1BBC
:101F0000FD010DC0AA1FBB1FEE1FFF1FA217B307C5
:101F1000E407F50720F0A21BB30BE40BF50B661FDB
:101F2000771F881F991F1A9469F76095709580959F
:101F300090959B01AC01BD01CF0108950E94E60F71
:101F4000A59F900DB49F900DA49F800D911D11240D
:101F500008950F93083090F0982F872F762F652FD4
:101F6000542F432F322F22270850F4CF220F331F34
:101F7000441F551F661F771F881F991F0A95B2F7C8
:101F80000F91089597FB10F8169400080F930830EE
:101F900098F00850232F342F452F562F672F782F76
:101FA000892F902DF4CF0594979587957795679510
:101FB00057954795379527950A95AAF70F91089554
:101FC000EE0FFF1F0590F491E02D0994A29FB00140
:101FD000B39FC001A39F700D811D1124911DB29F5D
:101FE000700D811D1124911D0895CF93DF938230D0
:101FF000910510F482E090E0E091D102F091D202DC
:1020000020E030E0A0E0B0E0309739F1408151812C
:1020100048175907B8F04817590771F4828193811E
:10202000109729F013969C938E9312972CC090933F
:10203000D2028093D10227C02115310531F0421719
:10204000530718F0A901DB0101C0EF019A01BD019E
:10205000DF010280F381E02DD7CF21153105F9F0A2
:10206000281B390B2430310580F48A819B8161154E
:10207000710521F0FB019383828304C09093D20207
:102080008093D102FE01329644C0FE01E20FF31F9D
:102090008193919322503109398328833AC020914A
:1020A000CF023091D002232B41F4209102013091D4
:1020B00003013093D0022093CF0220910001309190
:1020C00001012115310541F42DB73EB740910401BE
:1020D00050910501241B350BE091CF02F091D00205
:1020E000E217F307A0F42E1B3F0B2817390778F0EF
:1020F000AC014E5F5F4F2417350748F04E0F5F1F4E
:102100005093D0024093CF028193919302C0E0E0BC
:10211000F0E0CF01DF91CF910895CF93DF93009747
:1021200009F487C0FC01329713821282C091D10258
:10213000D091D202209781F420813181280F391F5C
:102140008091CF029091D0028217930779F5F09396
:10215000D002E093CF026DC0DE0120E030E0AE1788
:10216000BF0750F412964D915C9113979D01411554
:10217000510509F1DA01F3CFB383A2834081518184
:10218000840F951F8A179B0771F48D919C9111976D
:10219000840F951F02969183808312968D919C9156
:1021A0001397938382832115310529F4F093D2028A
:1021B000E093D1023EC0D9011396FC93EE9312979F
:1021C0004D915D91A40FB51FEA17FB0779F480814B
:1021D0009181840F951F0296D90111969C938E933D
:1021E0008281938113969C938E931297E0E0F0E0A6
:1021F0008A819B81009719F0FE01EC01F9CFCE0195
:10220000029628813981820F931F2091CF0230914D
:10221000D0022817390769F4309729F41092D202B6
:102220001092D10202C013821282D093D002C093C6
:10223000CF02DF91CF910895A0E0B0E0E2E2F1E1BA
:102240000C944012EC01CB01209719F40E94F50F79
:10225000B8C0FE01E60FF71F9E0122503109E217B8
:10226000F30708F4ACC0D9010D911C911197061722
:102270001707B8F00530110508F49FC0A8014450B5
:1022800051094617570708F498C002501109061B58
:10229000170B019311936D937C93CF010E948D10C6
:1022A0008CC05B01A01AB10A4E01800E911EA09154
:1022B000D102B091D202612C712C60E070E01097D5
:1022C00009F449C0A815B905C9F5ED90FC9011971E
:1022D000670142E0C40ED11CCA14DB0478F1470147
:1022E0008A189B08640142E0C40ED11C1296BC906F
:1022F00012971396AC91B5E0CB16D10440F0B282A0
:10230000A38391828082D9018D939C9309C00E5F33
:102310001F4F0E0D1F1DF90111830083EB2DFA2FA6
:102320006115710531F0DB011396FC93EE93129762
:1023300044C0F093D202E093D1023FC06D917C91F2
:1023400011976616770608F43B01BD0112960D90B1
:10235000BC91A02DB4CF6091CF027091D0026815CE
:102360007905E9F468167906D0F44091000150919E
:1023700001014115510541F44DB75EB7609104016B
:1023800070910501461B570BE417F507C0F4F09355
:10239000D002E093CF02F901918380830EC00E94A6
:1023A000F50F7C01009759F0A801BE010E94E611CB
:1023B000CE010E948D10C70104C0CE0102C080E092
:1023C00090E0CDB7DEB7EEE00C945C12FB01DC01CF
:1023D00002C001900D9241505040D8F70895FB0182
:1023E000DC018D91019080190110D9F3990B0895AA
:1023F000FB01DC0101900D920020E1F708952532E8
:10240000310520F4223010F00C940A12FA011082E7
:10241000CA010895BB27FA01A62F6217710581052D
:102420009105330B30FB66F0AA27660F771F881FD4
:10243000991FAA1FA21710F0A21B63953850A9F785
:10244000A05DAA3308F0A95DA19336F7B111B1934D
:102450001082CA010C942C12DC01FC01672F7191CF
:102460007723E1F7329704C07C916D93708362917A
:10247000AE17BF07C8F308952F923F924F925F9215
:102480006F927F928F929F92AF92BF92CF92DF9284
:10249000EF92FF920F931F93CF93DF93CDB7DEB7E9
:1024A000CA1BDB0B0FB6F894DEBF0FBECDBF09947D
:1024B0002A88398848885F846E847D848C849B84D4
:1024C000AA84B984C884DF80EE80FD800C811B81E2
:1024D000AA81B981CE0FD11D0FB6F894DEBF0FBE11
:1024E000CDBFED01089510E0C6ECD0E004C0FE01C0
:1024F0000E94E20F2296C83CD107C9F7F894FFCF9B
:102500000000D302800002000300040031313131A9
:1025100031313131303030303030313031313131B2
:10252000313130310000000000B908250A3B085461
:1025300008460897080D0A006E616E00696E660015
:062540006F7666002E001C
:00000001FF
